:100000000C942A000C9447000C9447000C94470071
:100010000C9447000C9447000C9447000C94470044
:100020000C9447000C9447000C9447000C94470034
:100030000C9447000C9447000C9447000C94470024
:100040000C9447000C9447000C9447000C94470014
:100050000C94470011241FBECFE5D4E0DEBFCDBF16
:1000600010E0A0E6B0E0E4E6F3E002C005900D92F7
:10007000A83AB107D9F710E0A8EAB0E001C01D9294
:10008000A83AB107E1F70E94D5000C94B0010C9496
:100090000000282F207F28BBC298C39A20ED37E0AC
:1000A000F9013197F1F7C398F9013197F1F790E031
:1000B00044E0880F991F4A95E1F788BBC298C39A1C
:1000C000C9010197F1F7C398C9010197F1F70895A4
:1000D00082E090E00E94490088E290E00E9449009E
:1000E00086E090E00E9449008CE090E00E94490088
:1000F0000895282F207F28BBC29AC39A20ED37E0AD
:10010000F9013197F1F7C398F9013197F1F790E0D0
:1001100054E0880F991F5A95E1F788BBC29AC39A99
:10012000C9010197F1F7C398C9010197F1F7089543
:1001300081E00E94490080ED97E00197F1F7089572
:100140001F93CF93DF93EC0110E003C00E9479006E
:100150001F5FFE01E10FF11D80818823B9F7DF9158
:10016000CF911F910895CF93DF93EC0184E00E941B
:100170004900209791F480E30E9479000EC0CE01DF
:100180006AE070E00E949C01805D0E947900CE01CF
:100190006AE070E00E949C01EB01209781F786E005
:1001A0000E944900DF91CF9108959F92AF92BF9234
:1001B000CF92DF92EF92FF920F931F93CF93DF9333
:1001C0001FEF17BB0E9468001ABB14BB11BA80EE68
:1001D00080BBC8ECD0E0BAEA9B2EA5E5AA2EF0EED3
:1001E000CF2EE0EFBE2E78EFE72E6CEFD62E0EEF7F
:1001F000FF24FA9410EA80B3807E8036C1F40E9416
:10020000980080E80E94490080E690E00E94A000EB
:1002100080EC0E9449008DE690E00E94A00088EEEC
:1002200093E0FE013197F1F70197D9F702C00E94E0
:10023000980080B3807E803A09F063C080E80E9415
:1002400049008CE790E00E94A00095BA88EE93E008
:10025000FE013197F1F70197D9F7A5BA88EE93E03F
:10026000FE013197F1F70197D9F780E80E94490024
:100270000E9498008AE890E00E94A00080E885BB78
:1002800088EE93E0FE013197F1F70197D9F780EC02
:1002900085BB88EE93E0FE013197F1F70197D9F71E
:1002A000C5BA88EE93E0FE013197F1F70197D9F7CF
:1002B000B5BA88EE93E0FE013197F1F70197D9F7CF
:1002C000E5BA88EE93E0FE013197F1F70197D9F78F
:1002D000D5BA88EE93E0FE013197F1F70197D9F78F
:1002E00005BB88EE93E0FE013197F1F70197D9F74E
:1002F000F5BA88EE93E0FE013197F1F70197D9F74F
:1003000002C00E94980015BA80B3807E803C81F4C0
:1003100080E80E94490085E990E00E94A0001BBB94
:1003200088EE93E0FE013197F1F70197D9F702C00B
:100330000E9498001BBA5FCFAA1BBB1B51E107C0EC
:10034000AA1FBB1FA617B70710F0A61BB70B881F65
:10035000991F5A95A9F780959095BC01CD010895F4
:04036000F894FFCF3F
:1003640077656C636F6D65206C6574730020706CC9
:1003740061792077697468206C636400616C7465CA
:10038400726E616465206C65640063686173657294
:10039400206C656400666F72776172642F646972A1
:0803A400656374696F6E0000CF
:00000001FF
